{
  "contractName": "AgriChain",
  "abi": [
    {
      "constant": true,
      "inputs": [
        {
          "internalType": "uint256",
          "name": "",
          "type": "uint256"
        }
      ],
      "name": "productIds",
      "outputs": [
        {
          "internalType": "uint256",
          "name": "",
          "type": "uint256"
        }
      ],
      "payable": false,
      "stateMutability": "view",
      "type": "function"
    },
    {
      "constant": false,
      "inputs": [
        {
          "internalType": "uint256",
          "name": "prodId",
          "type": "uint256"
        },
        {
          "internalType": "string",
          "name": "pname",
          "type": "string"
        },
        {
          "internalType": "string",
          "name": "pstatus",
          "type": "string"
        },
        {
          "internalType": "string",
          "name": "pcurLoc",
          "type": "string"
        }
      ],
      "name": "addProduct",
      "outputs": [
        {
          "internalType": "uint256",
          "name": "",
          "type": "uint256"
        }
      ],
      "payable": false,
      "stateMutability": "nonpayable",
      "type": "function"
    },
    {
      "constant": true,
      "inputs": [],
      "name": "getProductIds",
      "outputs": [
        {
          "internalType": "uint256[16]",
          "name": "",
          "type": "uint256[16]"
        }
      ],
      "payable": false,
      "stateMutability": "view",
      "type": "function"
    },
    {
      "constant": true,
      "inputs": [
        {
          "internalType": "uint256",
          "name": "prodId",
          "type": "uint256"
        }
      ],
      "name": "getProductDetail",
      "outputs": [
        {
          "internalType": "string",
          "name": "",
          "type": "string"
        },
        {
          "internalType": "string",
          "name": "",
          "type": "string"
        },
        {
          "internalType": "string",
          "name": "",
          "type": "string"
        },
        {
          "internalType": "bytes32",
          "name": "",
          "type": "bytes32"
        }
      ],
      "payable": false,
      "stateMutability": "view",
      "type": "function"
    },
    {
      "constant": true,
      "inputs": [
        {
          "internalType": "string",
          "name": "s",
          "type": "string"
        }
      ],
      "name": "string_tobytes",
      "outputs": [
        {
          "internalType": "bytes",
          "name": "",
          "type": "bytes"
        }
      ],
      "payable": false,
      "stateMutability": "view",
      "type": "function"
    }
  ],
  "bytecode": "0x608060405234801561001057600080fd5b50610e50806100206000396000f3fe608060405234801561001057600080fd5b50600436106100575760003560e01c806347428e7b1461005c5780635ddc949c146100a2578063bc6d057714610228578063c1393d271461035c578063cb51bba914610563575b600080fd5b6100646105a5565b6040518082601060200280838360005b8381101561008f578082015181840152602081019050610074565b5050505090500191505060405180910390f35b6100ce600480360360208110156100b857600080fd5b81019080803590602001909291905050506105f0565b60405180806020018060200180602001858152602001848103845288818151815260200191508051906020019080838360005b8381101561011c578082015181840152602081019050610101565b50505050905090810190601f1680156101495780820380516001836020036101000a031916815260200191505b50848103835287818151815260200191508051906020019080838360005b83811015610182578082015181840152602081019050610167565b50505050905090810190601f1680156101af5780820380516001836020036101000a031916815260200191505b50848103825286818151815260200191508051906020019080838360005b838110156101e85780820151818401526020810190506101cd565b50505050905090810190601f1680156102155780820380516001836020036101000a031916815260200191505b5097505050505050505060405180910390f35b6102e16004803603602081101561023e57600080fd5b810190808035906020019064010000000081111561025b57600080fd5b82018360208201111561026d57600080fd5b8035906020019184600183028401116401000000008311171561028f57600080fd5b91908080601f016020809104026020016040519081016040528093929190818152602001838380828437600081840152601f19601f820116905080830192505050505050509192919290505050610842565b6040518080602001828103825283818151815260200191508051906020019080838360005b83811015610321578082015181840152602081019050610306565b50505050905090810190601f16801561034e5780820380516001836020036101000a031916815260200191505b509250505060405180910390f35b61054d6004803603608081101561037257600080fd5b81019080803590602001909291908035906020019064010000000081111561039957600080fd5b8201836020820111156103ab57600080fd5b803590602001918460018302840111640100000000831117156103cd57600080fd5b91908080601f016020809104026020016040519081016040528093929190818152602001838380828437600081840152601f19601f8201169050808301925050505050505091929192908035906020019064010000000081111561043057600080fd5b82018360208201111561044257600080fd5b8035906020019184600183028401116401000000008311171561046457600080fd5b91908080601f016020809104026020016040519081016040528093929190818152602001838380828437600081840152601f19601f820116905080830192505050505050509192919290803590602001906401000000008111156104c757600080fd5b8201836020820111156104d957600080fd5b803590602001918460018302840111640100000000831117156104fb57600080fd5b91908080601f016020809104026020016040519081016040528093929190818152602001838380828437600081840152601f19601f820116905080830192505050505050509192919290505050610851565b6040518082815260200191505060405180910390f35b61058f6004803603602081101561057957600080fd5b8101908080359060200190929190505050610a3f565b6040518082815260200191505060405180910390f35b6105ad610d53565b60006010806020026040519081016040528092919082601080156105e6576020028201915b8154815260200190600101908083116105d2575b5050505050905090565b606080606060006060601060008781526020019081526020016000206000018054600181600116156101000203166002900480601f0160208091040260200160405190810160405280929190818152602001828054600181600116156101000203166002900480156106a35780601f10610678576101008083540402835291602001916106a3565b820191906000526020600020905b81548152906001019060200180831161068657829003601f168201915b505050505090506060601060008881526020019081526020016000206001018054600181600116156101000203166002900480601f0160208091040260200160405190810160405280929190818152602001828054600181600116156101000203166002900480156107565780601f1061072b57610100808354040283529160200191610756565b820191906000526020600020905b81548152906001019060200180831161073957829003601f168201915b505050505090506060601060008981526020019081526020016000206003018054600181600116156101000203166002900480601f0160208091040260200160405190810160405280929190818152602001828054600181600116156101000203166002900480156108095780601f106107de57610100808354040283529160200191610809565b820191906000526020600020905b8154815290600101906020018083116107ec57829003601f168201915b505050505090506000601060008a8152602001908152602001600020600201549050838383839750975097509750505050509193509193565b60608082905080915050919050565b60008085101580156108645750600f8511155b6108d6576040517f08c379a000000000000000000000000000000000000000000000000000000000815260040180806020018281038252600d8152602001807f676f20686f6d652073696d6f6e0000000000000000000000000000000000000081525060200191505060405180910390fd5b83601060008781526020019081526020016000206000019080519060200190610900929190610d76565b508260106000878152602001908152602001600020600101908051906020019061092b929190610d76565b5081601060008781526020019081526020016000206003019080519060200190610956929190610d76565b50600261096c610967868686610a57565b610842565b6040518082805190602001908083835b6020831061099f578051825260208201915060208101905060208303925061097c565b6001836020036101000a038019825116818451168082178552505050505050905001915050602060405180830381855afa1580156109e1573d6000803e3d6000fd5b5050506040513d60208110156109f657600080fd5b810190808051906020019092919050505060106000878152602001908152602001600020600201819055508460008660108110610a2f57fe5b0181905550849050949350505050565b60008160108110610a4c57fe5b016000915090505481565b6060610a848484846040518060200160405280600081525060405180602001604052806000815250610a8d565b90509392505050565b6060808690506060869050606086905060608690506060869050606081518351855187518951010101016040519080825280601f01601f191660200182016040528015610ae95781602001600182028038833980820191505090505b5090506060819050600080905060008090505b8851811015610b6a57888181518110610b1157fe5b602001015160f81c60f81b838380600101945081518110610b2e57fe5b60200101907effffffffffffffffffffffffffffffffffffffffffffffffffffffffffffff1916908160001a9053508080600101915050610afc565b5060008090505b8751811015610bdf57878181518110610b8657fe5b602001015160f81c60f81b838380600101945081518110610ba357fe5b60200101907effffffffffffffffffffffffffffffffffffffffffffffffffffffffffffff1916908160001a9053508080600101915050610b71565b5060008090505b8651811015610c5457868181518110610bfb57fe5b602001015160f81c60f81b838380600101945081518110610c1857fe5b60200101907effffffffffffffffffffffffffffffffffffffffffffffffffffffffffffff1916908160001a9053508080600101915050610be6565b5060008090505b8551811015610cc957858181518110610c7057fe5b602001015160f81c60f81b838380600101945081518110610c8d57fe5b60200101907effffffffffffffffffffffffffffffffffffffffffffffffffffffffffffff1916908160001a9053508080600101915050610c5b565b5060008090505b8451811015610d3e57848181518110610ce557fe5b602001015160f81c60f81b838380600101945081518110610d0257fe5b60200101907effffffffffffffffffffffffffffffffffffffffffffffffffffffffffffff1916908160001a9053508080600101915050610cd0565b50819850505050505050505095945050505050565b604051806102000160405280601090602082028038833980820191505090505090565b828054600181600116156101000203166002900490600052602060002090601f016020900481019282601f10610db757805160ff1916838001178555610de5565b82800160010185558215610de5579182015b82811115610de4578251825591602001919060010190610dc9565b5b509050610df29190610df6565b5090565b610e1891905b80821115610e14576000816000905550600101610dfc565b5090565b9056fea265627a7a72315820baae8dcc161253d78cb83444527cc9c883f1a1bc5c62c86efa6a1ccacd32057d64736f6c63430005100032",
  "source": "pragma solidity ^0.5.0;\r\n\r\ncontract AgriChain {\r\nuint[16] public productIds;\r\n\r\nstruct Data{\r\n  string name;\r\n  string status;\r\n  bytes32 hash_value;\r\n  string curLoc;\r\n}\r\n\r\nmapping(uint => Data) prod;\r\n\r\n// Adding a product\r\nfunction addProduct(uint prodId,string memory pname,string memory pstatus,string memory pcurLoc) public returns (uint) {\r\n  require(prodId >= 0 && prodId <= 15,\"go home simon\");\r\n  prod[prodId].name = pname;\r\n  prod[prodId].status = pstatus;\r\n  prod[prodId].curLoc = pcurLoc;\r\n  prod[prodId].hash_value = sha256(string_tobytes(strConcat(pname,pstatus,pcurLoc)));\r\n  productIds[prodId] = prodId;\r\n  return prodId;\r\n}\r\n\r\n// Retrieving the adopters\r\nfunction getProductIds() public view returns (uint[16] memory) {\r\n  return productIds;\r\n}\r\n\r\nfunction getProductDetail(uint prodId) public view returns (string memory,string memory,string memory,bytes32 ) {\r\n  string memory prod_name = prod[prodId].name;\r\n  string memory prod_status = prod[prodId].status;\r\n  string memory prod_curLoc = prod[prodId].curLoc;\r\n  bytes32  prod_hash = prod[prodId].hash_value;\r\n  return (prod_name,prod_status,prod_curLoc,prod_hash);\r\n}\r\n\r\nfunction string_tobytes(string memory s) public view returns (bytes memory){\r\n      bytes memory b3 = bytes(s);\r\n      return b3;\r\n}\r\n\r\nfunction strConcat(string memory _a, string memory _b, string memory _c, string memory _d, string memory  _e) internal returns (string memory){\r\n    bytes memory _ba = bytes(_a);\r\n    bytes memory _bb = bytes(_b);\r\n    bytes memory _bc = bytes(_c);\r\n    bytes memory _bd = bytes(_d);\r\n    bytes memory _be = bytes(_e);\r\n    string memory abcde = new string(_ba.length + _bb.length + _bc.length + _bd.length + _be.length);\r\n    bytes memory babcde = bytes(abcde);\r\n    uint k = 0;\r\n    for (uint i = 0; i < _ba.length; i++) babcde[k++] = _ba[i];\r\n    for (uint i = 0; i < _bb.length; i++) babcde[k++] = _bb[i];\r\n    for (uint i = 0; i < _bc.length; i++) babcde[k++] = _bc[i];\r\n    for (uint i = 0; i < _bd.length; i++) babcde[k++] = _bd[i];\r\n    for (uint i = 0; i < _be.length; i++) babcde[k++] = _be[i];\r\n    return string(babcde);\r\n}\r\n\r\nfunction strConcat(string memory _a, string memory _b, string memory _c) internal returns (string memory) {\r\n    return strConcat(_a, _b, _c, \"\", \"\");\r\n}\r\n\r\n\r\n}",
  "sourcePath": "D:\\ms\\SUBJECTS\\bc\\major\\pet-shop-box\\contracts\\AgriChain.sol",
  "compiler": {
    "name": "solc",
    "version": "0.5.16+commit.9c3226ce.Emscripten.clang"
  },
  "schemaVersion": "3.0.23",
  "updatedAt": "2020-02-28T23:56:17.754Z",
  "devdoc": {
    "methods": {}
  },
  "userdoc": {
    "methods": {}
  }
}